:100000000C94EA050C9431060C9431060C943106DC
:100010000C9431060C9431060C9431060C94310684
:100020000C9431060C9431060C942F300C94013151
:100030000C9430270C9431060C9431060C94310644
:100040000C9431060C9431060C9431060C94310654
:100050000C9431060C947D270C9431060C943106D7
:100060000C9431060C9431060C9431060C94310634
:100070000C9431060C9431060C9431060C94310624
:100080000C9431060C9431060C9431060C94310614
:100090000C9431060C9431060C9431060C94310604
:1000A0000C9431060C9431060C9431063614391434
:1000B000411446144B14501455145A145F1464140C
:1000C00069146E1470147314761479147C147F14EC
:1000D000811486142D1C2D1C5F1C5F1CAC1CCA1CBB
:1000E000EB1DEB1DD51C6A1D7B1D7B1DDB1DEB1D58
:1000F000EB1DE41D8B1E8B1E9D1E9D1E941E9D1EC2
:100100009D1E9D1E8B1E8B1E991E9D1E9D1E991E43
:100110006E3195318D3295318D32E13104328D322F
:100120005B326A3229001E001F00200021002200DD
:10013000230024002500260027002D002E0031007A
:100140004A004D002B00000014001A0008001500A2
:1001500017001C0018000C00120013002F003000C4
:100160002A004C000151000004001600070009009D
:100170000A000B000D000E000F00330034002800B1
:1001800000003C00E10000001D001B0006001900FB
:100190000500110010003600370038000000E500AF
:1001A00052003B00E000E3000000E200000000001D
:1001B0002C00000000000000E6000151000050008B
:1001C00051004F0001003A003B003C003D003E0062
:1001D0003F00400041004200430044004500010050
:1001E0005200510001000000C25CC55CC65CC75CE7
:1001F000C85CC95CC85C01000100460068000100E1
:100200000100010001000000010001004C0001009C
:1002100001005000510052004F0069006A000100C7
:100220000000350001000000010001000100010094
:1002300001000100010001000100010000000100B7
:100240000100350201000100000002510000000021
:1002500001000000000000000100010000004A0051
:1002600001004D0000000000000000000000000040
:10027000000000000000000000000000000000007E
:10028000000000000000000000000000000000006E
:10029000000000000000000000000000000000005E
:1002A000000000000000000000000000000000004E
:1002B00000004A00000000004D00000000000000A7
:1002C000000000000000000000000000000000002E
:1002D000000000000000000000000000000000001E
:1002E000000000000000000000000100000000000D
:1002F00000000000000000000000000000000000FE
:100300000000000044454255473A20646973616229
:100310006C65642E0A0044454255473A20656E617B
:10032000626C65642E0A000A002530313662003A9C
:10033000200025303258000A722F632030313233CA
:100340003435363738394142434445460A007267EE
:10035000626C696768742074696D65722064697382
:1003600061626C652E0A007267626C69676874204E
:1003700074696D657220656E61626C65642E0A0039
:100380007267626C6967687420736574206873763D
:10039000205B4E4F454550524F4D5D3A2025752C00
:1003A00025752C25750A007267626C696768742070
:1003B00073657420687376205B454550524F4D5DE0
:1003C0003A2025752C25752C25750A007267626CFC
:1003D00069676874207261696E626F7720736574F3
:1003E000206873763A2025642C25642C25642C25FE
:1003F000750A007267626C6967687420646973616A
:10040000626C65205B4E4F454550524F4D5D3A2022
:100410007267626C696768745F636F6E6669672E86
:10042000656E61626C65203D2025750A0072676209
:100430006C696768742064697361626C65205B45F0
:100440004550524F4D5D3A207267626C696768741F
:100450005F636F6E6669672E656E61626C65203DD5
:100460002025750A007267626C6967687420656E82
:1004700061626C65205B4E4F454550524F4D5D3A71
:10048000207267626C696768745F636F6E66696724
:100490002E656E61626C65203D2025750A007267CD
:1004A000626C6967687420656E61626C65205B458B
:1004B0004550524F4D5D3A207267626C69676874AF
:1004C0005F636F6E6669672E656E61626C65203D65
:1004D0002025750A007267626C6967687420746F02
:1004E00067676C65205B454550524F4D5D3A207201
:1004F00067626C696768745F636F6E6669672E65B3
:100500006E61626C65203D2025750A007267626C21
:1005100069676874206D6F6465205B4E4F45455078
:10052000524F4D5D3A2025750A007267626C69670B
:100530006874206D6F6465205B454550524F4D5D7A
:100540003A2025750A007267626C696768745F6992
:100550006E6974207267626C696768745F636F6E3E
:100560006669672E6D6F6465203D20302E205772BE
:100570006974652064656661756C742076616C755C
:10058000657320746F20454550524F4D2E0A0072FE
:1005900067626C696768745F696E6974206565631A
:1005A0006F6E666967206973206E6F7420656E6177
:1005B000626C65642E0A007267626C696768745FBA
:1005C000696E6974207374617274210A00726762C3
:1005D0006C696768745F696E69742063616C6C65CF
:1005E000642E0A007267626C696768745F636F6E7D
:1005F0006669672E7370656564203D2025640A0076
:100600007267626C696768745F636F6E6669672E94
:1006100076616C203D2025640A007267626C696710
:1006200068745F636F6E6669672E736174203D2026
:1006300025640A007267626C696768745F636F6E35
:100640006669672E687565203D2025640A0072671B
:10065000686C696768745F636F6E6669672E6D6F3B
:100660006465203D2025640A007267626C696768D2
:10067000745F636F6E6669672E656E61626C65207C
:100680003D2025640A007267626C696768745F6365
:100690006F6E66696720454550524F4D3A0A0032E9
:1006A000190A00047F3F1F643214643214783C1E20
:1006B0001E140A052223252628292A2C2D2F303204
:1006C000333536383A3B3D3E4042434547494A4C34
:1006D0004E5051535557595A5C5E60626466686962
:1006E0006B6D6F71737577797B7D7F81838587896A
:1006F0008A8C8E90929496989A9C9E9FA1A3A5A76F
:10070000A8AAACAEAFB1B3B4B6B8B9BBBCBEBFC19A
:10071000C2C3C5C6C7C9CACBCCCDCED0D1D2D2D325
:10072000D4D5D6D7D7D8D9D9DADADBDBDBDCDCDC39
:10073000DCDCDDDDDDDDDCDCDCDCDCDBDBDBDADAFC
:10074000D9D9D8D7D7D6D5D4D3D2D2D1D0CECDCC73
:10075000CBCAC9C7C6C5C3C2C1BFBEBCBBB9B8B688
:10076000B4B3B1AFAEACAAA8A7A5A3A19F9E9C9A13
:1007700098969492908E8C8A89878583817F7D7BE1
:1007800079777573716F6D6B6968666462605E5CC2
:100790005A5957555351504E4C4A49474543424088
:1007A0003E3D3B3A3836353332302F2D2C2A29281E
:1007B00026252322FFAA7F55406261636B6C69671F
:1007C000687420737465703A2025750A006261634D
:1007D0006B6C696768742064697361626C650A0098
:1007E0006261636B6C6967687420656E61626C65D9
:1007F0000A006261636B6C6967687420746F676775
:100800006C653A2025750A006261636B6C696768E4
:10081000742064656372656173653A2025750A000A
:100820006261636B6C6967687420696E637265618D
:1008300073653A2025750A000001010101010101DB
:100840000101020202020202020202030303030385
:100850000303030404040404040405050505050654
:100860000606060607070707070808080809090912
:10087000090A0A0A0B0B0B0C0C0C0D0D0D0E0E0EBB
:100880000F0F0F101011111112121313141415154C
:1008900016161717181819191A1A1B1B1C1D1D1EBE
:1008A0001E1F202021222223242425262627282912
:1008B000292A2B2C2D2D2E2F303132323334353640
:1008C0003738393A3B3C3D3E3F4041424344454640
:1008D0004748494A4C4D4E4F50515354555658591C
:1008E0005A5B5D5E5F616264656668696B6C6D6FC3
:1008F0007072737577787A7B7D7E80828385878836
:100900008A8C8E8F91939596989A9C9EA0A2A3A56F
:10091000A7A9ABADAFB1B3B5B7BABCBEC0C2C4C670
:10092000C9CBCDCFD1D4D6D8DBDDDFE2E4E7E9EB2C
:10093000EEF0F3F5F8FAFDFF0A00253032582000FA
:100940006B6579626F6172645F7265706F72743A21
:1009500020000A0025303258006B6579626F6172A1
:10096000645F7365745F6C65643A200064656C5FF6
:100970006B65795F6269743A2063616E27742064E5
:10098000656C3A20253032580A006164645F6B65FB
:10099000795F6269743A2063616E277420616464D0
:1009A0003A20253032580A00290A002575002F0008
:1009B0002575005D280025640020002564002000C6
:1009C00025640020002564007C0025303258006D2D
:1009D0006F7573656B6579205B62746E7C782079C6
:1009E000207620685D287265702F61636C293A203B
:1009F0005B005B735D004B6579626F6172642073AD
:100A0000746172742E0A005B575D005B535D005B7E
:100A1000525D005B445D005B435D000403300000F9
:100A20000010034B004200440036003700760032CD
:100A300000000010034B0042004400460061006EBD
:100A400000730000000403090409025B00030100B5
:100A5000A0FA0904000001030101000921110100AD
:100A6000012240000705810308000A090401000172
:100A70000300000009211101000122BC00070582CA
:100A80000320000A090402000203000000092111EA
:100A9000010001222200070583032000010705034E
:100AA000032000011201100100000008424B6760A2
:100AB0000200010203010631FF0974A10109751545
:100AC0000026FF009520750881020976150026FF93
:100AD00000952075089102C005010902A101850257
:100AE0000901A10005091901290515002501950530
:100AF00075018102950175038101050109300931F4
:100B00001581257F95027508810609381581257F95
:100B1000950175088106050C0A38021581257F9517
:100B20000175088106C0C005010980A1018503196E
:100B3000012AB700150126B700950175108100C084
:100B4000050C0901A101850419012AA0021501263D
:100B5000A002950175108100C005010906A101855B
:100B600005050719E029E71500250195087501819C
:100B7000020507190029EF1500250195F07501817F
:100B80000205081901290595057501910295017560
:100B9000039101C005010906A101050719E029E734
:100BA00015002501950875018102950175088101DF
:100BB0000507190029FF150026FF00950675088115
:100BC0000005081901290595057501910295017522
:100BD000039101C011241FBECFEFDAE0DEBFCDBF0D
:100BE00004B603FE27C080919F039091A003A091BB
:100BF000A103B091A2038730904BA740B04BD1F432
:100C000010929F031092A0031092A1031092A203CE
:100C100014BE84B7877F84BF0FB6F894A8958091DF
:100C20006000886180936000109260000FBEE0E079
:100C3000F8E3099511E0A0E0B1E0EAE7F8E602C0C8
:100C400005900D92AE3DB107D9F723E0AEEDB1E0CE
:100C500001C01D92AF39B207E1F70E94642D0C94D8
:100C60003B340C940000FF93EF93E091DE01F09190
:100C7000DF01309709F00995EF91FF910895FC018C
:100C80008591803011F0EFDFFBCF0895FF27E0E280
:100C900030E247FF0CC0419597FF09C0EDE2609537
:100CA000709580959095611D711D811D911D27FF87
:100CB00002C0219530E350E2AA27660F771F881FF4
:100CC000991FAA1FA41710F0A41B63955A95A9F7A2
:100CD000AA3008F0A95FA05DAF93F3956115710587
:100CE0008105910541F7ED3211F4EF93F395F21779
:100CF00018F43F93F395FBCF8F91B5DFFA95E1F7A9
:100D00000895E991F9918591803021F0853219F0AB
:100D1000AADFF9CF089520E0E89455915532C1F348
:100D2000503311F4689455915A3348F4505390F36A
:100D3000220F022E220F220F200D250FF4CF0EF4CA
:100D4000219589919991533619F3533729F15335E8
:100D500059F1BC0188279927E8945C3621F48991E0
:100D6000999168945591543639F446EF7EF077FFA7
:100D70000DC08FEF9FEF0AC055374AE039F0583564
:100D800040E121F0523642E009F00895FF93EF93DD
:100D90007DDFEF91FF91B7CFFF93EF93FC0181913E
:100DA0008030B9F360DFFBCFFF93EF9368DFF1CFC3
:100DB000DF93CF93CDB7DEB72596A3DFCF91DF9139
:100DC0000895549A0C943C0ACF93C82F0E9452075E
:100DD000882329F0C1FD02C05C9A01C05C98CF91C4
:100DE000089581E0089581E008950C94F306089534
:100DF0000C94F7061F93CF93DF9300D000D01F927F
:100E0000CDB7DEB749835A836B83309168028981FD
:100E10009A81311114C0662359F0222349F00E94AF
:100E2000C723182F682F89819A810E94702303C0DD
:100E30000E949B23182F69817A81812F04C00E9410
:100E4000C72369817A810F900F900F900F900F90B8
:100E5000DF91CF911F910C94D707FC01262F408181
:100E600051816281738184810C94FA06CF93DF9360
:100E7000EC0160E00E942D07BE01DF91CF910C9440
:100E8000F8060E94C9270E942925811102C00E94EC
:100E9000D2250E946D160C94E1060C943A0A08952E
:100EA0000C944F0781E00895CF93C82F0E945007FC
:100EB0008C2F0E94E406CF91089508950E94791E18
:100EC0000E945D072FEF84E39CE02150804090401A
:100ED000E1F700C000000C94A3270F931F93CF935A
:100EE000DF93EC0161E00E942D078C01BE010E949E
:100EF000F506882309F450C0BE01C8010E94D6152A
:100F0000882309F449C0BE01C8010E944017882304
:100F100009F442C0BE01C8010E9492178823E1F182
:100F2000BE01C8010E94BD188823B1F1BE01C801ED
:100F30000E941F14882381F18A81882331F10130B6
:100F40008CE5180751F00E3D8CE51807D9F0011516
:100F50001C45D9F40E945E071FC080910003C82F72
:100F6000C095C170C0FB80F980930003CC2329F0A9
:100F700086E193E00E943F060FC084E093E00E9468
:100F80003F060BC00E94D22507C0CE01DF91CF9152
:100F90001F910F910C94F106C0E08C2FDF91CF913F
:100FA0001F910F91089580E090E008950895E72F34
:100FB000F0E095E0899FE00DF11D112484E0EE0F33
:100FC000FF1F8A95E1F7E60FF11DEE0FFF1FEC5DA5
:100FD000FE4F859194910895880F991FFC01E95D5A
:100FE000FC4F859194910895CF93DF930E94D7078A
:100FF0000E940C09EC018115904508F041C0C11513
:1010000080E4D80708F0D1C0C83ED10510F5C03E35
:10101000D10508F0FDC0C83AD10578F4C53AD1052C
:1010200008F0A2C0C130D10509F4F2C008F4EEC046
:10103000C430D10508F0ECC0E9C0CF3BD10508F4BD
:101040009BC0C03CD10508F4E1C0CE01805C910991
:101050009EC0C11590E2D90758F4C11521E0D2070E
:1010600008F0D6C0C03FD10508F4D0C0D065D0C0CC
:10107000C11580E3D80708F08EC0CE019F7087C0ED
:10108000C11595E5D90708F043C0C11524E5D2077D
:1010900008F0A2C0C11582E5D80708F5C11591E591
:1010A000D90708F085C0CE0174E0969587957A95AA
:1010B000E1F783709C2F937021E030E002C0220F93
:1010C000331F9A95E2F73C68382BCF70C695C695CA
:1010D00080E2C89FE0011124C22BD32B99C09E014E
:1010E000237033278C2F86958695C115D34508F03C
:1010F00064C0C1E0D0E002C0CC0FDD1F2A95E2F74A
:1011000020E2829FC0011124C82BD92BDC6880C04B
:10111000C11529E5D207A0F4C11588E5D80708F064
:1011200060C0C11596E5D90708F070C08C2F0E94E9
:10113000A0098F71C82FD0E0DC2FCC27D06268C007
:10114000C1152AE5D20708F451C0CE019056811589
:10115000904208F05BC08D2F8F710E94A009DD279F
:10116000D0628F71D82B54C0C55AD0E0C65ADE4F1A
:10117000C881D0E0D0644CC0C85AD0E0CC0FDD1F8D
:10118000C45DDE4F0990D881C02DD46441C00E9457
:10119000EC07EC013DC0CE019927D3FF03C0EC0161
:1011A000D86C36C0EC01D06C33C0DF70D06A30C070
:1011B000DC2FCC27C16FD06A2BC0C1E0D0E002C0C9
:1011C000CC0FDD1F2A95E2F720E2829FC001112497
:1011D000C82BD92BDA681CC0DC2FCC27C46FD06A8F
:1011E00017C0DC2FCC27C06FD06A12C08C2F8F7035
:1011F0000E94A00994E0D695C7959A95E1F7CF7023
:10120000D0E0DC2FCC27D069C82B02C0C0E0D0E0F2
:10121000CE01DF91CF9108958238910569F1B0F444
:101220008133910509F46DC048F48932910509F4C0
:1012300063C08A32910509F469C008958533910528
:1012400009F455C089339105B9F00895833E91059D
:1012500069F138F4803E9105B1F0823E910509F1C3
:101260000895863E9105A9F1873E9105B9F1843E26
:10127000910509F064C023C02091900320FD4FC068
:1012800021FD4DC008958091900380FD44C0809160
:10129000910380FF44C08091900384FD42C083EE9F
:1012A0004DC08091900382FF38C0F5CF80919003AC
:1012B00082FD33C08091910380FD31C0ECCF8091DD
:1012C000910381FF32C08091900384FD2AC087EE94
:1012D00035C08091900383FF26C0F5CF80919003A5
:1012E00083FD21C08091910381FD1FC0ECCF8091CF
:1012F000900385FD1CC01DC08091900385FD19C021
:1013000016C08091900386FD16C017C0809190038F
:1013100086FD13C010C089E311C082EE0FC080EEBD
:101320000DC080E00BC086EE09C084EE07C089E2E4
:1013300005C085E303C08AE201C081E390E008951F
:101340009091900392FF0DC0282F2871283019F436
:10135000877F846006C0282F2471243011F48B7F8E
:10136000886093FF0DC0282F2871283119F4877EDB
:10137000846106C0282F2471243111F48B7E88618A
:101380002091910320FF0DC0382F3871383019F4A7
:10139000877F816006C0382F3171313011F48E7F24
:1013A000886021FF0DC0282F2871283119F4877E0D
:1013B000816106C0282F2171213111F48E7E886150
:1013C00094FD877E0895E82FF0E0EE0FFF1FE05CAC
:1013D000FC4F808191810895CF92DF92EF92FF922E
:1013E0000F931F93CF93DF9387E393E00E943F0611
:1013F00080E4E82E83E0F82EC0E0D0E092E3C92E2E
:1014000093E0D92E09E213E0DF93CF93DF92CF92DE
:101410000E94D8068FE293E00E943F06F701819177
:1014200091917F010E9410259F938F931F930F939B
:101430000E94D80687E293E00E943F0621968DB76E
:101440009EB708960FB6F8949EBF0FBE8DBFC530ED
:10145000D105D1F6DF91CF911F910F91FF90EF90C1
:10146000DF90CF90089580EA8A95F1F70895089566
:101470000C94370A0C94380A0C94370ACF93DF93F4
:10148000ADE6B1E042E751E061E070E08D91E82F18
:10149000E295EF70F0E021A18F70EB0102C0CC0F5C
:1014A000DD1F8A95E2F7CE019C2F9095922391A3A0
:1014B00092A1892B82A34A175B0741F7ADE5B1E002
:1014C0004DE651E061E070E08D91E82FE295EF701C
:1014D000F0E021A18F70EB0102C0CC0FDD1F8A95D7
:1014E000E2F7CE019C2F9095922391A392A1892B94
:1014F00082A34A175B0741F7E6E3F3E0A0E4B3E019
:1015000080E493E0119211921D921D928E179F0715
:10151000C9F785E00E941D0BDF91CF910C94410724
:101520006F927F928F929F92AF92BF92CF92DF92F3
:10153000EF92FF920F931F93CF93DF938DE6C82E08
:1015400081E0D82E06E313E090E4A92E93E0B92EB3
:10155000712C88248394912CF60181916F01C82FFE
:10156000C295CF70D0E099A18F70740101C0EE0CCC
:101570008A95EAF7892F8E2989A38AA16E2C609417
:1015800086218AA30E94330AEDE5F1E040E050E0B5
:1015900020E030E06191A62FA295AF70B0E0909668
:1015A0008C9190E06F7002C0959587956A95E2F7EF
:1015B00080FD08C0C401042E02C0880F991F0A9440
:1015C000E2F702C080E090E0282B392B4F5F5F4F9D
:1015D00040315105F9F689A1682269A28AA1E82A59
:1015E000EAA2F801808191812817390721F031831F
:1015F000208381E001C080E0782A0E5F1F4FA01693
:10160000B10609F0A9CF272D45E060E473E086E339
:1016100093E00E941E0B0E944D07872DDF91CF9112
:101620001F910F91FF90EF90DF90CF90BF90AF9000
:101630009F908F907F906F9008950895FF920F93E1
:101640001F93CF93DF93F82E092F162FD72FC42F78
:10165000222349F081E08093E2010E946227909367
:10166000E1018093E0018091E2018823D9F080912B
:10167000E0019091E1010E946E27069798F0EF2D0E
:10168000F02FA12FBD2F80E090E04C2F50E0841769
:10169000950734F4219131912D933D930196F7CF25
:1016A0001092E201DF91CF911F910F91FF90089569
:1016B000EF92FF920F931F93CF93DF938B01682FCD
:1016C00011110AC0442329F0E82FF0E0E85CF74F3D
:1016D0006491762F862F75C0212F30E0E82FF0E03F
:1016E000442321F0E85CF74FE491F0E046E0049FEA
:1016F000C0011124CFEFD0E0BE010E94EA324BEAD4
:101700004603C001479F900D1124800F911D800F4B
:10171000911D982F990F890FAE01421B530B4E9FBD
:10172000D0014F9FB00D5E9FB00D11249B2F189FCD
:10173000A0011124452F55278E01041B150B0E9F68
:10174000A0010F9F500D1E9F500D11247E01E81A1D
:10175000F108E29E8001E39E100DF29E100D11240F
:10176000212F3327C21BD30BCE9F9001CF9F300D6B
:10177000DE9F300D112462307105A9F048F4611527
:10178000710569F061307105C9F48B2F752F0DC09B
:101790006430710581F058F06630710579F47E2F60
:1017A0008B2F932F0DC0832F7B2F9E2F09C08E2F41
:1017B0007B2F952F05C08E2F732F02C07E2F852F74
:1017C000692FDF91CF911F910F91FF90EF900895B6
:1017D00041E00E94580B08950895CF93DF93762F30
:1017E000E901682F842F0E94E80B798368838A833C
:1017F000DF91CF910895413F08F040EF0C94ED0B3D
:1018000080914A03282F269530E02115310519F4DF
:101810008170826005C02B32310524F081708465AF
:1018200080934A0380914D03813F18F080EF8093AD
:101830004D03089588E090E00C94DC33CF92DF9262
:10184000EF92FF926B017C010E94000CB701A60190
:1018500088E090E0FF90EF90DF90CF900C94FA3307
:10186000EAE4F3E083E0808311828FEF828380EFEC
:101870008383148260817181828193810C941E0C18
:101880008091000380FF08C086E896E09F938F93C5
:101890000E94D8060F900F908091000380FF0FC028
:1018A00080914A0381701F928F9389E696E09F93FF
:1018B0008F930E94D8060F900F900F900F908091F9
:1018C000000380FF0FC080914A0386951F928F937B
:1018D0008EE496E09F938F930E94D8060F900F900E
:1018E0000F900F908091000380FF0EC080914B03FA
:1018F0001F928F9384E396E09F938F930E94D80664
:101900000F900F900F900F908091000380FF0EC0FA
:1019100080914C031F928F938AE196E09F938F935F
:101920000E94D8060F900F900F900F9080910003A7
:1019300080FF0EC080914D031F928F9380E096E050
:101940009F938F930E94D8060F900F900F900F9047
:101950008091000380FF0EC080914E031F928F93F1
:1019600084EE95E09F938F930E94D8060F900F907E
:101970000F900F90089580914A0380FF02C08695D2
:10198000089580E0089590914E03933018F49F5F7E
:1019900090934E03882351F060914A0370914B035A
:1019A00080914C0390914D030C941E0C089581E09E
:1019B0000C94C30C90914E03992319F0915090937D
:1019C0004E03882351F060914A0370914B0380913C
:1019D0004C0390914D030C941E0C089581E00C94DF
:1019E000DA0C70E00C947D166091080180914A0336
:1019F00080FF0AC08091070123E0829FC00111246B
:101A0000815B9C4F0C94F10C8091090190910A012B
:101A1000891780F7E82FF0E09F01220F331FE20FB4
:101A2000F31FE15BFC4F1182108212828F5FF0CFB7
:101A300090914A0390FF16C09091090120910A01EC
:101A4000921770F4E92FF0E0DF01AA0FBB1FEA0F35
:101A5000FB1FE15BFC4F8183608342839F5FF0CF7C
:101A60000C94F40C0895CF93DF9300D01F92CDB760
:101A7000DEB790914A0390FF0AC09E012F5F3F4F4F
:101A80000E94FB0B4B8169818A810E94180D0F9087
:101A90000F900F90DF91CF910895CF93DF93EC01DA
:101AA000EC81F0E0EC54F94F4491EAE4F3E0628118
:101AB00081810E94330D8C818F5F8C83DF91CF9168
:101AC0000895CF93DF93EC01EAE4F3E04381628170
:101AD0008C810E94330D8C818F5F8C83DF91CF913D
:101AE00008950F931F93CF93DF9300D01F92CDB72C
:101AF000DEB78C018091E30181110AC09E012F5F46
:101B00003F4F40EF6FEF0E94FB0B8A818093E30110
:101B1000F8018481813051F028F0823061F44091E5
:101B2000E3010AC08091E30140E007C06091E30156
:101B300040E080E003C040E080E060E00E94180DDB
:101B4000F801848190E0019663E070E00E94FE322B
:101B500084830F900F900F90DF91CF911F910F9181
:101B600008954F925F926F927F928F929F92AF9261
:101B7000BF92CF92DF92EF92FF920F931F93CF937A
:101B8000DF9300D01F92CDB7DEB7F82EB62EE42E2D
:101B9000622E90914A0390FFB4C0E92FE695AE2FD4
:101BA000B0E0AE58BE4F8C91809351029E7F923030
:101BB00061F49E012F5F3F4F8F2D0E94FB0B4B81E5
:101BC00069818A810E94180D62C0823019F4E09008
:101BD0004D035DC0863019F4F0904B0358C0893036
:101BE000D9F3893109F053C0E9518E2F8170782ED5
:101BF00081E0A72CA826E695F0E0EC54F84FC590BC
:101C0000D490412CDD249CEC892E93E0992E609198
:101C10000B014616D0F5042D10E00C9DC0010D9D62
:101C2000900D1C9D900D112470E00E94EA325F2CF3
:101C3000711002C0560E01C0561A8091000380FF39
:101C400011C0DF92CF921F92AF921F925F921F92AC
:101C50004F929F928F920E94D8060FB6F894DEBFE3
:101C60000FBECDBF80910901080F111D9801220FF1
:101C7000331F020F131F9801215B3C4F4E2D6B2D1C
:101C8000852D0E94FB0B4394C2CF0E94F40CF0926E
:101C90004B03B0924C03E0924D036620E9F0609153
:101CA0004A0370914B0380914C0390914D030E9425
:101CB0001E0C8091000380FF24C080914D031F9271
:101CC0008F9380914C031F928F9380914B031F92AF
:101CD0008F9387EA93E00CC08091000380FF11C0CE
:101CE0001F92EF921F92BF921F92FF9280E893E0A3
:101CF0009F938F930E94D8060FB6F894DEBF0FBE55
:101D0000CDBF0F900F900F90DF91CF911F910F914A
:101D1000FF90EF90DF90CF90BF90AF909F908F900B
:101D20007F906F905F904F900895EAE4F3E0918187
:101D3000282F4381628188E0890F0C94B10D81E0E6
:101D40000C94950EEAE4F3E09181282F438162819F
:101D500088EF890F0C94B10D81E00C94A20EEAE497
:101D6000F3E0628128E0620F08F46FEF282F4381CF
:101D700081810C94B10D81E00C94AF0EEAE4F3E0A4
:101D8000628128E0621B08F460E0282F4381818192
:101D90000C94B10D81E00C94BE0EEAE4F3E04381B3
:101DA00028E0420F08F44FEF282F628181810C94C4
:101DB000B10D81E00C94CD0EEAE4F3E0438128E01C
:101DC000421B08F440E0282F628181810C94B10D00
:101DD00081E00C94DC0E20E00C94B10DFF920F9387
:101DE0001F93CF93DF93EC01F12C0FEF10E0609184
:101DF0000B01F616F0F4809109012F2D30E0280F29
:101E0000311DC901880F991F280F391F215B3C4FD5
:101E100070E0C8010E94FE32962F8C8140914D03E4
:101E200060914C03F99E800D11240E94FB0BF394EA
:101E3000DECF0E94F40C9A818C8190FF02C08F5FEC
:101E400001C081508C83DF91CF911F910F91FF9042
:101E50000895AF92BF92CF92DF92EF92FF920F93CD
:101E60001F93CF93DF93FC01828180FF02C00FEFAD
:101E700001C001E010E044E1A42E80910B0118178D
:101E800008F043C080910901C12ED12CE601C80F92
:101E9000D11DCE01880F991FC80FD91FC15BDC4F20
:101EA000198218821A8234E0E32EF12CB12C809131
:101EB000E5018B0D85312CF06A2D0E94DC32892FD3
:101EC00005C087FF03C090910B01890F082E000CFD
:101ED000990BC816D90691F480914D038E9DA001EF
:101EE0008F9D500D112455954795559547959E0109
:101EF00060914C0380914B030E94FB0BB00EF1E00C
:101F0000EF1AF108A1F61F5FB8CF0E94F40C809180
:101F1000E501013031F4811102C080910B01815043
:101F200007C090E0019660910B0170E00E94FE32C4
:101F30008093E501DF91CF911F910F91FF90EF907A
:101F4000DF90CF90BF90AF900895CF93809109011B
:101F500090910A01891770F4E82FF0E09F01220F99
:101F6000331FE20FF31FE15BFC4F118210821282DC
:101F70008F5FF0CFC0E060910B01C617C0F5EC2F6A
:101F8000F0E070E0CF010E94FE3220910901820F43
:101F90002091E401022E000C330B90E0E217F307CE
:101FA000CCF020910601022E000C330B2E173F07B8
:101FB0008CF09C01220F331F820F931F9C01215B29
:101FC0003C4F40914D0360914C0380914B030E9424
:101FD000FB0B0BC0FC01EE0FFF1F8E0F9F1FFC01C0
:101FE000E15BFC4F118210821282CF5FC4CF0E944E
:101FF000F40C209105018091E401820F8093E401AB
:1020000090910601920F9093060119165CF4082E28
:10201000000C990B40910B0150E04150510984177D
:1020200095071CF0219520930501CF9108958F927B
:102030009F92AF92BF92CF92DF92EF92FF920F9357
:102040001F93CF93DF938C01FC014481C42FD0E018
:102050009E01DE010E9442339B01AC010E94583375
:102060006B017C01E0E2F0E0EC1BFD0BA5E5B0E0CC
:102070009B01AC010E9458334B015C019F01DF01C1
:102080000E943A339B01AC010E9463339B01AC0177
:102090002C0D3D1D4E1D5F1DC501B4010E94123364
:1020A000C22FD22F2A3228F4F3E02F9F900111245F
:1020B0000DC025E530E02C1B3109C901880F991F9F
:1020C000280F391F37FF02C02F5F3F4F35952795E7
:1020D000C22FC095F12C85E5E82EED1A80910B01F9
:1020E000F816C8F4F1FC02C08E2D01C08D2F90911E
:1020F00009012F2D30E0290F311DA901440F551F73
:10210000240F351F215B3C4F4C2F60914C030E94E4
:10211000FB0BF394E3CF0E94F40CF801848181114E
:1021200002C091E003C0803219F49FEF9093040144
:1021300090910401890FF8018483DF91CF911F9161
:102140000F91FF90EF90DF90CF90BF90AF909F9056
:102150008F9008950F931F93CF93DF93EC0100E0CE
:1021600010E080910B01282F30E00217130724F5AF
:10217000909109019801290F311DA901440F551FA4
:10218000240F351F215B3C4F869590E04C8108174A
:1021900019071CF4442331F002C0411103C04091DF
:1021A0004D0301C040E060914C0380914B030E94BD
:1021B000FB0B0F5F1F4FD5CF0E94F40C8C8190E07A
:1021C0000196817099278C83DF91CF911F910F9198
:1021D00008958F929F92AF92BF92CF92DF92EF922B
:1021E000FF920F931F93CF93DF93FC01B2809480F3
:1021F00081E0848300E015E05BE4A52E88248394CD
:10220000EE24EA94F12C7BE4C72ED12C80910B01B3
:10221000081708F08FC0C02FD0E01C9FF0011D9F51
:10222000F00D1124EA51FE4F911003C01382128267
:1022300067C02381222389F12150238334813323F2
:1022400019F09A2D921B01C0922F80914D031C9F73
:10225000F0011D9FF00D1124EA51FE4F899FC0012E
:102260001124B6010E94EA326283211104C0332393
:1022700011F01482A38222E02B1508F441C01C9FA8
:10228000F0011D9FF00D1124EA51FE4F80914B0388
:10229000808380914C03818333C00E94B7338230A6
:1022A000914074F582E08B1530F40E94B733B7018A
:1022B0000E94FE3202C080914B031C9FF0011D9FC3
:1022C000F00D1124EA51FE4F808322E02B1558F4C3
:1022D0000E94B73320914C032695622F70E00E9434
:1022E000FE32820F02C080914C031C9FF0011D9FA3
:1022F000F00D1124EA51FE4F81831282A382848261
:10230000809109019E01280F311DC901880F991F75
:10231000280F391F215B3C4F1C9FF0011D9FF00DC2
:102320001124EA51FE4F4281618180810E94FB0BA2
:102330000F5F6CCFDF91CF911F910F91FF90EF90C6
:10234000DF90CF90BF90AF909F908F900C94F40C43
:1023500060914A03669570E04BE050E08CE091E0BC
:102360000E94C733892B19F481E0809352020E94A6
:10237000622790934B0280934A028091000380FF72
:1023800008C087E693E09F938F930E94D8060F9032
:102390000F900895109252028091000380FF08C0B0
:1023A0008EE493E09F938F930E94D8060F900F9036
:1023B000089590914A0390FF54C09170811102C01A
:1023C000926006C08B3210F0946502C0880F982B83
:1023D00090934A036623B1F060914A0370914B03D6
:1023E00080914C0390914D030E941E0C809100033C
:1023F00080FF1BC080914A0386951F928F938AE2CB
:1024000095E00BC08091000380FF0FC080914A03CC
:1024100086951F928F938CE095E09F938F930E94F7
:10242000D8060F900F900F900F9060914A03669519
:1024300070E04BE050E08CE091E00E94C733892BC4
:1024400019F00E94CA1102C00E94A81181E0809375
:102450004D0240914D0360914C0380914B030C94CD
:10246000EB0E0895682F90914A03969581E0890FAD
:102470008B3208F081E00C94D91181E00C94321277
:10248000682F90914A0396958FEF890F09F48AE29D
:102490000C94D91181E00C94401261E00C94D91194
:1024A00080914A03816080934A038091000380FFFA
:1024B0000DC01F9281E08F938EE994E09F938F93DC
:1024C0000E94D8060F900F900F900F9080914A03B2
:1024D00086950C944D1260E00C94D91180915002B5
:1024E000811160C08091000380FF08C08DEC95E0F1
:1024F0009F938F930E94D8060F900F9080910003B6
:1025000080FF08C087EB95E09F938F930E94D806C9
:102510000F900F900E942925811110C08091000317
:1025200080FF08C08FE895E09F938F930E94D806A4
:102530000F900F900E94D2250E94300C0E941A0C1E
:1025400060934A0370934B0380934C0390934D0325
:102550006E7FC1F48091000380FF08C086E495E09F
:102560009F938F930E94D8060F900F900E94300C7B
:102570000E941A0C60934A0370934B0380934C03A0
:1025800090934D030E94000C0E94400C1092520246
:1025900080914A0380FF03C086950E946B1281E000
:1025A00080935002089580914A03816080934A038A
:1025B0008091000380FF0DC01F9281E08F9385E61C
:1025C00094E09F938F930E94D8060F900F900F90E6
:1025D0000F9080914A0386950C946B1280914A0368
:1025E0008E7F80934A0360914A0370914B038091E0
:1025F0004C0390914D030E941E0C8091000380FFBC
:102600000FC080914A0381701F928F938DE294E0F6
:102610009F938F930E94D8060F900F900F900F906A
:102620000E94CA112FEF80E792E021508040904035
:10263000E1F700C000000C94F40C8091000380FFCF
:1026400010C080914A03809581701F928F9385ED11
:1026500094E09F938F930E94D8060F900F900F9055
:102660000F9080914A0380FD0C94EE120C9450124E
:1026700080914A038E7F80934A038091000380FFFC
:102680000CC01F921F9283EF93E09F938F930E9441
:10269000D8060F900F900F900F900E94CA112FEF45
:1026A00080E792E0215080409040E1F700C00000B8
:1026B0000C94F40C0F931F93CF93DF9380915202ED
:1026C000882309F49CC080915102E0914A03E69569
:1026D000E81BE0934C02823049F4F0E0E055F94FFA
:1026E000E491CE2FD0E00DE41DE059C0863049F4CE
:1026F000F0E0E355F94FE491CE2FD0E001E61DE084
:102700004EC0893051F4E695F0E0E655F94FE4917A
:10271000CE2FD0E00EEE1EE042C08F3051F4E69591
:10272000F0E0E955F94FE491CE2FD0E009E21FE047
:1027300036C0853149F4F0E0EC55F94FE491CE2FE5
:10274000D0E005EA1FE02BC08831D9F0833239F49C
:10275000E2EAF6E0C591D49101E71DE020C08432A1
:10276000A9F08532C1F48E2F63E00E94D032E92FA8
:10277000F0E0E156F94FE491CE2FD0E009EE10E100
:102780000EC0C8E2D0E007E110E109C0C4EFD1E01B
:102790000AEA10E104C0C0EDD7E00CEE1BE0809126
:1027A0004D02882389F010924D020E9462279E01FB
:1027B00020953095820F931F90934B0280934A028D
:1027C00010924F0210924E0280914A0290914B0259
:1027D0000E946E278C179D0790F0E0914A02F091BD
:1027E0004B02CE0FDF1FD0934B02C0934A028AE404
:1027F00092E0F801DF91CF911F910F910994DF9141
:10280000CF911F910F910895882311F0FA0101C013
:10281000FB010994CF93DF93C82FD62F0E94BB0CE6
:102820008C1740F00E94BB0C8D1720F4DF91CF91E4
:102830000C943D128C2FDF91CF910C944D120F937D
:102840001F93CF93FB01C281CC2309F463C08C0199
:102850000E9448248272F801E25CFC45E431F105F3
:1028600008F059C0EA5AFF4F0C9434330E941D13EC
:1028700006C04AE452E16DE372E10E940414C0E034
:102880004AC04DE352E16AE472E1F7CF4CEA5EE000
:102890006FE97EE0F2CF4FE95EE06CEA7EE0EDCFDB
:1028A0004AEC5EE06BEB7EE0E8CF4BEB5EE06AEC7F
:1028B0007EE0E3CF48EE5EE069ED7EE0DECF49EDFD
:1028C0005EE068EE7EE0D9CF4EEE5CE067ED7CE046
:1028D000D4CF47ED5CE06EEE7CE0CFCF81E017C057
:1028E00065E082E010C068E086E00DC06EE089E03F
:1028F0000AC064E18FE007C067E185E104C088E1B8
:1029000006C062E289E10E940A14B9CF83E20E9404
:102910004D12B5CFC1E08C2FCF911F910F9108952B
:102920000E942925811102C00E94D2250E945A25A9
:1029300080938B03282F26952695269530E024300A
:10294000310524F08770886180938B0380918B031D
:1029500080FF04C086958695869501C080E00C9422
:102960000B1620918B03822F869586958695482F8E
:1029700050E04330510554F48F5F982F990F990F11
:10298000990F822F8770892B80938B0380918B0303
:10299000816080938B030E945E258091000380FFFD
:1029A00011C080918B038695869586951F928F9393
:1029B00080E298E09F938F930E94D8060F900F902B
:1029C0000F900F9080918B038695869586950C9439
:1029D0000B1680918B03982F969596959695A1F05E
:1029E000915E990F990F990F8770892B80938B03B4
:1029F000887F91E009F490E080918B0390FB80F94F
:102A000080938B030E945E258091000380FF11C09C
:102A100080918B038695869586951F928F9388E08B
:102A200098E09F938F930E94D8060F900F900F907D
:102A30000F9080918B038695869586950C940B1646
:102A400080918B0380FD1FC0816080938B03813058
:102A500019F489E080938B0380918B030E945E259B
:102A60008091000380FF08C080EE97E09F938F93D2
:102A70000E94D8060F900F9080918B0386958695C3
:102A800086950C940B16089580918B0380FF14C0DB
:102A90008E7F80938B030E945E258091000380FFD0
:102AA00008C08DEC97E09F938F930E94D8060F90FB
:102AB0000F9080E00C940B160895CF93C0918B0378
:102AC000C1708091000380FF0CC01F92CF9382EFF2
:102AD00097E09F938F930E94D8060F900F900F90CE
:102AE0000F90CC2319F0CF910C944415CF910C94F6
:102AF000201590918B03892F8695869586958F5FFB
:102B00008F719770843038F4880F880F880F892B65
:102B100080938B0302C090938B0380918B03887FFB
:102B200091E009F490E080918B0390FB80F9809311
:102B30008B030E945E258091000380FF11C080916D
:102B40008B038695869586951F928F9389EB97E0E8
:102B50009F938F930E94D8060F900F900F900F9025
:102B600080918B038695869586950C940B16843000
:102B700008F083E090918B039770282F220F220F8B
:102B8000220F922B90938B03987F21E009F420E091
:102B900090918B0320FB90F990938B030C940B1670
:102BA0000E94B71580918B030C945E259C01FB015C
:102BB0008281882349F12D3BFCE53F07C9F040F4B1
:102BC0002B3BECE53E0769F02C3B3C4561F008955A
:102BD0002F3B9CE5390791F070F0203C3C4589F093
:102BE000089583E001C080E00E94D01580E0089540
:102BF0000E94E914FBCF0E94B114F8CF0E945D152A
:102C0000F5CF0E947915F2CF81E00895259A2D988D
:102C100008952D980895CF92DF92EF92FF92CF936F
:102C2000C82F843050F4811109C0809180008F77C3
:102C3000809380000E94091606C0C3E08091800046
:102C40008068809380002C2F30E0AFEFBFEF0E94B0
:102C5000423323E030E040E050E00E941233C901EB
:102C60002C3764E1360728F469E070E00E94EA320C
:102C700029C0DA01C9018A50974DAF4FBF4F66276F
:102C8000782F892F9A2F25EF38E241E050E00E94FB
:102C9000123369017A01CA01B9010E94C0329B0155
:102CA000AC01C701B6010E94C032BB27A92F982FE3
:102CB000872F009721E0A207B10511F0BC0102C0E7
:102CC0006FEF7FEF7093890060938800CF91FF9042
:102CD000EF90DF90CF90089508950E94061682E845
:102CE0008093800089E1809381008FEF9FEF909324
:102CF0008700809386000C9490146A9A2EB12B7FE3
:102D00003EB134604FB7F894FC01CB01880F991F96
:102D1000680F791F6E0F7F1FE617F70789F0819103
:102D200098E03EB9000000C087FF2EB9880F000070
:102D300000C000C000C02EB900C09A9591F7ECCF3A
:102D40004FBF8FE594E00197F1F700C000000895B0
:102D5000AF92BF92CF92DF92EF92FF920F931F93A9
:102D6000CF93DF937C015B01C42FD22FFC018281C2
:102D70008823F9F0409355020E94622790935402F1
:102D80008093530280E28C0F883008F06EC0C770C9
:102D900081E001C0880FCA95EAF7DF91CF911F91BA
:102DA0000F91FF90EF90DF90CF90BF90AF900C9479
:102DB000E91B80915502481335C0809153029091D0
:102DC00054020E946E276C01B701C5010E94322196
:102DD000C816D90638F510E21D0FCD17B9F080E2FC
:102DE0008C0F883040F4C77081E001C0880FCA950D
:102DF000EAF70E94F01B183058F581E09D2F97707C
:102E000001C0880F9A95EAF70E94E91B802F0E9463
:102E1000D61B183050F5D77081E001C0880FDA95C5
:102E2000EAF70AC080E28C0F8830F8F4C77081E0BE
:102E300001C0880FCA95EAF7DF91CF911F910F91DA
:102E4000FF90EF90DF90CF90BF90AF900C94F01B6D
:102E5000802FDF91CF911F910F91FF90EF90DF9026
:102E6000CF90BF90AF900C94D61BDF91CF911F9164
:102E70000F91FF90EF90DF90CF90BF90AF900895AB
:102E80000F939C01CB01233F4CE5340731F188F4CB
:102E9000283DFCE53F07D9F0293D4CE5340779F1A1
:102EA000273D3C45A9F506E221EE41EE67ED7CE5C4
:102EB0002BC0253FFCE53F07E1F0A8F0263F3C454D
:102EC00039F507E225EE46EE66EF7CE51DC007E228
:102ED00025EE45EE68ED7CE517C006E221EE40EEFA
:102EE00063EF7CE511C007E225EE44EE64EF7CE57C
:102EF0000BC006E221EE42EE65EF7CE505C008E27C
:102F000021E045EE69ED7CE50E94A81680E008C04E
:102F1000FC018281882319F01092550201C081E0E2
:102F20000F910895CF93DF93EC01FB0182818823F9
:102F300009F41FC1C230FCE5DF0708F41BC1C6312C
:102F40009CE5D90738F09E012A5F3C4529303105C0
:102F500008F010C10E943C25909391038093900348
:102F6000C031ECE5DE0709F4C3C008F041C0C83049
:102F70008CE5D80709F49AC0F0F4C430ECE5DE071C
:102F800009F487C068F4C2308CE5D80709F477C02B
:102F9000C330DC4509F0E3C080919003826076C0C5
:102FA000C630ECE5DE0709F46EC008F07BC0809106
:102FB000900388606BC0CC308CE5D80709F485C0DD
:102FC00068F4CA30ECE5DE0709F474C008F079C093
:102FD0000E94791E80919003806858C0CE308CE5A5
:102FE000D80709F476C008F07FC0809190038BC0A9
:102FF000CB3FECE5DE0709F44FC018F5C3318CE593
:10300000D80709F47DC078F4C131ECE5DE0709F496
:1030100073C0C231DC4509F0A2C00E94791E8091C4
:1030200090038F7733C0C5318CE5D80709F472C09F
:1030300008F486C0CA3FDC4509F091C08091910335
:103040003EC0CF3FFCE5DF0709F45FC058F4CD3F39
:103050009CE5D90709F444C008F43FC0809191036E
:1030600082602DC0C130FDE5DF0709F475C008F4AA
:103070005DC0C230DD4509F072C080E06EC0809155
:103080009003816003C080919003806180939003DE
:1030900066C08091900311C08091910382608093FB
:1030A00091035DC0809190038062F0CF8091900386
:1030B0008064ECCF8091900388608460E7CF81606A
:1030C000EECF809190038E7FE1CF809190038D7F32
:1030D000DDCF80919003877FD9CF8091910318C075
:1030E000809191038D7FDBCF809190038F7ECECF37
:1030F000809190038F7DCACF809190038F7BC6CF44
:1031000080919003877F8B7FC1CF809191038D7FCA
:103110008E7FC5CF8091900382FB222720F991E01A
:10312000922790FB82F990FB83F9B0CF80919103B5
:10313000982F909591708E7F892B90FB81F9AFCF5E
:103140000E94791E8091900387FB222720F991E04D
:10315000922790FB87F99ACF81E00E94D425809135
:103160009003909191030E944D250E94791E80E06A
:1031700001C081E0DF91CF910895CF93DF93863135
:103180009C4541F5EB010E944824982F8A812091AB
:10319000170130911801882379F09A7A81E009F4B7
:1031A00080E080935602911102C069E201C065E39C
:1031B000C9010E9491260AC080915602811102C065
:1031C00069E201C065E3C9010E949C260E94962421
:1031D00080E001C081E0DF91CF91089590935C027F
:1031E00080935B020895E0915B02F0915C0230975E
:1031F00021F00190F081E02D099480E00895EF9294
:10320000FF921F93CF93DF93FC01A0915B02B091DB
:103210005C02109709F442C080912B01882341F091
:103220008091900387FF04C08081818385E0808343
:10323000EF011296ED91FC911397CE0109958091C3
:10324000000382FF2BC080FF04C080E499E00E944D
:103250003F0618E08AE3E82E89E0F82E809100030B
:1032600080FF0BC088811F928F93FF92EF920E9484
:10327000D8060F900F900F900F90115021961111BA
:10328000EDCF8091000380FF09C088E399E0DF91D2
:10329000CF911F91FF90EF900C943F06DF91CF915B
:1032A0001F91FF90EF900895E0915B02F0915C0216
:1032B000309739F022E0DC012C930480F581E02D79
:1032C000099408952091590230915A02281739071C
:1032D00071F090935A0280935902E0915B02F09151
:1032E0005C02309721F00680F781E02D0994089563
:1032F00020915702309158022817390771F09093A6
:10330000580280935702E0915B02F0915C02309783
:1033100021F00084F185E02D0994089585B7806837
:1033200085BF85B7806885BF089508950C94951969
:103330000C9496190C9495190C9495190E948E1959
:103340000E949A190C94981981E008950C94A4197C
:103350000E9459270E943E0A0E94DD270E94901475
:103360000E946E120C949C19CF93C82F8091000379
:1033700082FF1EC080FF04C089E599E00E943F06DD
:103380008091000380FF0CC01F92CF9384E599E0E9
:103390009F938F930E94D8060F900F900F900F90DD
:1033A0008091000380FF04C082E599E00E943F06FF
:1033B0008C2FCF910C9454077F928F929F92AF9253
:1033C000BF92CF92DF92EF92FF920F931F93CF9312
:1033D000DF93CDB7DEB72A970FB6F894DEBF0FBEE6
:1033E000CDBF0E94900A0E94A619811111C08FEFD3
:1033F00089838A831B820E9462278160782F9D8344
:103400008C8349815A816B818D810E94901A4FC0B3
:103410004EE5A42E42E0B42E00E010E0702E802F86
:103420000E94E3096C01F501819091905F0188266B
:1034300099268114910431F40F5F1F4F0530110557
:1034400069F7D5CF8091000381FD0E94EC0980E0EF
:10345000EE24E394F12C94012E213F21232B09F13A
:103460008E837F82CE20DF2081E0CD2809F480E0AA
:1034700088870E9462278160782F9A8789874E818A
:103480005F8168858A850E94901A000F111FF801DC
:10349000E25AFD4F80819181E826F926F182E0828F
:1034A00006C08F5FEE0CFF1C8031A9F6C5CF0E94CD
:1034B0005A130E946C160E940E2A0E94F3189091D3
:1034C0005D028917C9F00E94F31880935D022A9665
:1034D0000FB6F894DEBF0FBECDBFDF91CF911F9125
:1034E0000F91FF90EF90DF90CF90BF90AF909F90A3
:1034F0008F907F900C94B4192A960FB6F894DEBF83
:103500000FBECDBFDF91CF911F910F91FF90EF9034
:10351000DF90CF90BF90AF909F908F907F90089555
:10352000CF93DF93CDB7DEB72B970FB6F894DEBFFE
:103530000FBECDBF4F83588769877A878B87DE019F
:10354000119686E0FD0111928A95E9F785E0FE016A
:10355000379601900D928A95E1F749815A816B81E6
:103560007C818D819E810E9435212B960FB6F89427
:10357000DEBF0FBECDBFDF91CF910895FC018081EA
:1035800091810E9409240895CF93882309F4A4C04F
:10359000C82F8238C1F40E94F31881FD9DC069E3F1
:1035A00080911701909118010E9491260E94962403
:1035B0002FEF81EE94E0215080409040E1F700C071
:1035C000000069E319C0833801F50E94F31880FDFB
:1035D00083C063E580911701909118010E949126A4
:1035E0000E9496242FEF81EE94E02150804090407D
:1035F000E1F700C0000063E5809117019091180188
:103600000E949C26CF910C9496248438C1F40E9489
:10361000F31882FD61C067E4809117019091180151
:103620000E9491260E9496242FEF81EE94E0215073
:1036300080409040E1F700C0000067E4DDCF8CEFF0
:103640008C0F813AD0F46C2F809117019091180162
:103650000E94EF25882349F06C2F809117019091EB
:1036600018010E949C260E9496246C2F80911701BD
:10367000909118010E949126C5CF80E28C0F88306E
:1036800048F4C77081E001C0880FCA95EAF70E942C
:103690004B24B8CFEBE5EC0FE33040F4F0E0E5531A
:1036A000FE4F808190E0CF910C946219E8E5EC0F19
:1036B000E73150F4F0E0EE0FFF1FE356FE4F80813C
:1036C0009181CF910C947819C03F30F08C2F0E94DB
:1036D0008128CF910C946E29CF910895882309F405
:1036E00064C0823879F40E94F31881FF5EC069E3F8
:1036F00080911701909118010E9491260E949624B2
:1037000069E310C08338B1F40E94F31880FF4DC004
:1037100063E580911701909118010E9491260E9403
:10372000962463E580911701909118010E949C26D0
:103730000C949624843879F40E94F31882FF35C0E3
:1037400067E480911701909118010E9491260E94D0
:10375000962467E4E7CF9CEF980F913A10F4682F16
:10376000E1CF90E2980F983050F4877091E001C05B
:10377000990F8A95EAF7892F0E945124D9CF9BE5AA
:10378000980F933020F480E090E00C94621998E553
:10379000980F973120F480E090E00C947819803FE6
:1037A00020F00E94E9280C946E290895CF93C82F29
:1037B0000E94C41AC93349F42FEF87EE93E02150D9
:1037C00080409040E1F700C000008C2FCF910C9416
:1037D0006E1B882321F00E944B240C94962408959C
:1037E000882321F00E9451240C9496240895CF92AE
:1037F000DF92EF92FF920F931F93CF93DF937C01A1
:10380000062FC72FFC01158112951F70D281D1118F
:103810000E9468240E944124882399F0DD2389F0C6
:103820008C2F807F803421F080E2800F883048F038
:1038300082E00E94E0240E94412491E0D82ED92603
:1038400001C0D12CCC2EC2948FE0C8228C2D90E0E8
:10385000FC01E659FF4F0C9434338C2F807FCF70DE
:10386000882311F0C295C07FDD2399F0CC2309F4A1
:103870008DC180E2800F883010F0011104C08C2FC0
:103880000E944B2403C08C2F0E945B240E9496242C
:103890007DC1802F0E946E1BCC2309F49CC180E265
:1038A000800F883010F0011104C08C2F0E94512429
:1038B00003C08C2F0E9461240E9496248CC18C2FFF
:1038C000807FCF70803211F0C295C07F002319F045
:1038D0000130C9F022C0DD2371F0112341F0113015
:1038E00031F40E947B248C2B0E94832474C10E949B
:1038F0007B248C2B1DC0112319F0113009F46BC1EE
:103900000E948C2425C0DD2321F0163008F063C10D
:103910000EC0153008F05FC11BC0DD2361F011231C
:1039200031F0F701858180FF31C18F7085838C2F45
:103930000E94E91B50C1112359F0093309F037C126
:10394000FFEF27EE83E0F15020408040E1F72DC1EA
:103950008C2F0E94F01B3FC18C2F8695869583701B
:1039600019F0813061F037C1DD2321F0802F9C2FC9
:10397000937002C080E090E00E94621934C1DD23A0
:1039800021F0802F9C2F937002C080E090E00E9475
:10399000781929C1802FDD2319F00E94812802C0E7
:1039A0000E94E9280E946E291EC18C2F837009F0A5
:1039B00045C0D11114C1402F429546954770440F20
:1039C000440F602F6F70862F90E0A0E0B0E0042ECF
:1039D00004C0880F991FAA1FBB1F0A94D2F704FFC7
:1039E00010C00FE010E020E030E004C0000F111F15
:1039F000221F331F4A95D2F70095109520953095D8
:103A000003C000E010E09801C695C695C370BC01E4
:103A1000CD01602B712B822B932BC23049F058F4CF
:103A2000C13019F00E948622DAC00E947422D7C0E9
:103A30000E949822D4C00E947222D1C0DD2319F0C6
:103A40008C2F817001C08695882309F4C8C0402F4F
:103A5000429546954770440F440F602F6F70862F34
:103A600090E0A0E0B0E0042E04C0880F991FAA1FC8
:103A7000BB1F0A94D2F704FF10C00FE010E020E053
:103A800030E004C0000F111F221F331F4A95D2F7E8
:103A9000009510952095309503C000E010E0980146
:103AA000C695C695C370BC01CD01602B712B822BCE
:103AB000932BC23049F058F4C13019F00E944B23C7
:103AC0008EC00E9439238BC00E945D2388C00E9453
:103AD000AC2285C0CF70DD2339F08C2F0E94D2221A
:103AE000802F0E94E91B7BC0802F0E94F01B8C2F2F
:103AF0000E94F32274C0023F01F128F4003F41F01C
:103B0000013FA1F03FC0033FF9F0043F39F13AC053
:103B1000DD2341F0153008F05EC08C2F8F710E94BC
:103B2000182359C0163008F056C0F7CFDD2339F0FE
:103B30008C2F8F710E94D2224EC0DD23C9F38C2FAF
:103B40008F710E94F32247C0DD2329F08C2F8F71E3
:103B50000E94BD2240C00E94B8223DC0DD2349F032
:103B6000CF718C2F0E94D22263E08C2F0E94CB2435
:103B700032C081E00E94E024123068F182E00E94AD
:103B8000E02429C0DD2331F0112391F2802F0E941F
:103B9000C41A21C0112399F2093349F49FEFE7EECB
:103BA000F3E09150E040F040E1F700C00000802FCA
:103BB0000E946E1B10C04C2F4F70602FC7010E94D7
:103BC000D3070E94E3210FC04C2F4F70602FC70115
:103BD0000E94D60708C088EF8C0D843020F40E9424
:103BE000F3180E945407DD20C9F00E943D2480FD97
:103BF00015C0F70112820E9437240E94D222C70109
:103C00000E942F1E0E943724DF91CF911F910F91A8
:103C1000FF90EF90DF90CF900C94F322DF91CF9143
:103C20001F910F91FF90EF90DF90CF9008950F9329
:103C30001F93CF93DF93EC01688179818A810E9481
:103C400014248C010E946F230E946022B801CE01CF
:103C50000E94F71BDF91CF911F910F910895CF9391
:103C6000DF93EC01988189812B813C81232B31F0FA
:103C70008F3F31F481E09F3F19F403C081E001C020
:103C800080E080FD19C0CE010E946D0781110CC03B
:103C90000E944124882381F08A81882369F082E090
:103CA000DF91CF910C94E024CE010E94171ECE012B
:103CB000DF91CF910C943607DF91CF9108950E9448
:103CC00068240E9478240E9496240E94212B0E943E
:103CD0006E2980E090E00E94621980E090E00C94F0
:103CE000781980911701909118010E94A7260C94D1
:103CF0005F1E0E9458240C94711EE92FE295EF700C
:103D00004E2F50E0FA013297EE30F105B0F4E6584C
:103D1000FF4F0C943433803F91F018F4883E68F4E0
:103D20000EC0843F51F40BC0883E48F0813F29F417
:103D300006C093FB882780F9089580E0089581E00C
:103D400008950E9409240E947D1E0895CF93DF9359
:103D500000D000D01F92CDB7DEB70F900F900F901C
:103D60000F900F90DF91CF910895CF93DF9300D004
:103D700000D000D0CDB7DEB726960FB6F894DEBFE0
:103D80000FBECDBFDF91CF9108951F93CF93DF93E7
:103D9000C091690216E080916A02C81799F0D0E0DC
:103DA0001C9FF0011D9FF00D1124E559FD4F40812E
:103DB000518162817381848195810E94B51E219613
:103DC000C770E9CFDF91CF911F91089540919B0279
:103DD00050919C0260919D0270919E0280919F0281
:103DE0009091A0020C94B51E0F931F93CF93DF9375
:103DF0008091A00282958F7009F05DC080919D0234
:103E0000882309F458C08091690210916A02609178
:103E10009B0270919C02C0919E02D0919F0291E002
:103E20006F3F09F090E0292F06E0811709F443C0A5
:103E3000209721F07F3F21F030E003C031E001C046
:103E4000322F90E030FD34C0089FF001099FF00D43
:103E50001124DF01A559BD4F11963C9111973713DD
:103E600027C03C91361324C012963C911297311111
:103E70001FC013964D915C9114974C1B5D0B483CF1
:103E80005105B0F48091A0028F7080618093A002F0
:103E9000E059FD4F80818F70806180838BE992E0D3
:103EA0000E942F1EDF91CF911F910F910C94C51E80
:103EB00001968770BACFDF91CF911F910F9108952E
:103EC0009F92AF92BF92CF92DF92EF92FF920F93A9
:103ED0001F93CF93DF93CDB7DEB761970FB6F894FA
:103EE000DEBF0FBECDBF8C0185E0F801DE011D965F
:103EF00001900D928A95E1F7F80140815181E280AD
:103F000090919B0260919C0220919E0230919F02B1
:103F10002115310531F06F3F31F481E09F3F19F4F5
:103F200003C081E001C080E0F82FF1709F2E80FD7A
:103F300046C1F801A380B4808BE9C82E82E0D82E58
:103F4000F0909D02F501E21BF30BFF2009F4DFC0A6
:103F50008091A002E83CF10508F09BC0282F207F4B
:103F600009F052C0561313C0491311C0FE2CE110C2
:103F70000EC08F7080618093A0020E94E61EC60171
:103F80000E942F1E8091A002F801858358C1AB28A2
:103F900031F05F3F31F481E04F3F19F403C081E01D
:103FA00001C080E080FD03C081E08E2502C080E07A
:103FB00090E0F82FF170FF2E80FF1CC08091690205
:103FC00020916A0236E0821709F417C190E0389F09
:103FD000F001399FF00D1124E559FD4F6181561311
:103FE00006C06081461303C06281E61203C00196D9
:103FF0008770E9CFFE2CEE2009F421C18091A00248
:1040000081608093A0025AC0561306C0491304C0B1
:10401000E11002C0F8019FC04D875E878D859E85A7
:104020000E94A11E882379F1EE2069F12091A0025F
:10403000822F82958F7090E0029774F080919B029E
:1040400090919C0298878F831986BB86AA862C87BD
:10405000CE0107960E942F1E86E0F801ABE9B2E080
:1040600001900D928A95E1F70E94F41E0E94E61ECF
:104070000DC0561729F14D875E878D859E850E945C
:10408000A11E81112CC0C8010E942F1EFF24F39491
:10409000D6C0282F207F69F77A2DB98AA88A6E2D7D
:1040A00089890E94A61E8BE992E00E942F1E86E05D
:1040B000F60111928A95E9F70E94E61EF12CBFC025
:1040C0004913D9CFE110D7CFF8018583C8010E94E9
:1040D0002F1E86E0F60111928A95E9F7B0C0EE2016
:1040E00091F22091A002822F82958F7090E002972A
:1040F0000CF4B2CF80919B0290919C029A838983A9
:104100001B82BD82AC822E83CE010196A3CFE83CF8
:10411000F10508F047C0FE2CEE2009F4B4CF561389
:1041200030C049132EC02091A00220FD21C0822F53
:1041300082958F70482F50E041155105C9F0F80164
:1041400025834F30510541F08F5F982F9295907FD6
:10415000822F8F70892B8583C8010E942F1E86E0D5
:10416000F801ABE9B2E001900D928A95E1F742C007
:1041700086E0F801ABE9B2E001900D928A95E1F793
:104180005EC04D875E878D859E850E94A11E811130
:1041900063CF8091A00281608093A002C8010E9439
:1041A0002F1E4DC07A2DB98AA88A6E2D89890E944A
:1041B000A61E86E0F60111928A95E9F71BC0EE2053
:1041C00009F461CF4D875E878D859E850E94A11E73
:1041D000F82E882309F457CF86E0F801ABE9B2E066
:1041E00001900D928A95E1F78BE992E00E94BE1A48
:1041F0000E94F41E0E94E61E22C04D875E878D85B8
:104200009E850E940924292F22952F70223028F4A0
:104210009F7039F0811105C00BC0243028F49F70C5
:1042200049F4805E883020F0C8010E942F1E9F2C28
:10423000F92C05C0F8019581907F99F7F9CF8F2D62
:1042400061960FB6F894DEBF0FBECDBFDF91CF9160
:104250001F910F91FF90EF90DF90CF90BF90AF90A4
:104260009F90089588EC90E008951F93CF93DF937B
:10427000CDB7DEB72C970FB6F894DEBF0FBECDBF1B
:104280004F83588769877A878B879C87CE010796EB
:104290000E94601F8823D1F09F8188852A853B85F5
:1042A000232B31F08F3F31F481E09F3F19F403C09D
:1042B00081E001C080E080FD47C04F81588569855D
:1042C0007A858B859C850E94B51E3EC086E0FE01E6
:1042D0003796DE01119601900D928A95E1F7FF81E4
:1042E000E8856A857B856115710531F0EF3F31F412
:1042F00081E0FF3F19F403C081E001C080E080FD50
:1043000023C020916A0230E0C90101968770992785
:104310004091690250E084179507F1F1F983EA832F
:104320007D836C8396E0929FD001939FB00D112402
:10433000A559BD4FFE01319601900D929A95E1F776
:1043400080936A020E94C51E16E0809169029091D6
:104350006A02891771F1189FC001112485599D4F78
:104360000E94601F882329F1E09169021E9FF001DD
:104370001124E559FD4F408151816281738184810F
:1043800095810E94B51E8091690290E00196877028
:10439000992780936902D9CF0E94791E10926A02F0
:1043A00010926902EBE9F2E086E0DF011D928A9546
:1043B000E9F72C960FB6F894DEBF0FBECDBFDF91A4
:1043C000CF911F910895EF92FF920F931F93CF9378
:1043D000DF938C01892B09F46CC0F12CEE24E3945B
:1043E000E8012196F8018491843740F4843008F084
:1043F00051C0813081F0823019F15BC0853709F4FA
:1044000044C0A8F19CE7980F903708F052C08F770E
:104410000E946E1B41C00E5F1F4FFE01849190E20F
:10442000980F983050F48770FE2D01C0FF0F8A95C9
:10443000EAF78F2F0E946B2414C00E94C41A2DC06B
:104440000E5F1F4FFE01849190E2980F983060F448
:104450008770FE2D01C0FF0F8A95EAF78F2F0E940B
:1044600071240E94962419C00E946E1B16C00E5F14
:104470001F4FFE01C491CC2381F08FE99FE001978B
:10448000F1F700C00000C150F6CF0E5F1F4FFE01D4
:10449000F49003C00E94C41A8E018F2D882309F462
:1044A0009FCFEFE9FFE03197F1F700C000008150A6
:1044B000F5CFDF91CF911F910F91FF90EF9008956D
:1044C000089508950C9461220C9462220E94642243
:1044D0006093D7027093D8028093D9029093DA0246
:1044E0000C945F1E0C9466220F931F930091D702C9
:1044F0001091D8022091D9023091DA02602B712BF1
:10450000822B932B1F910F910C9466220F931F9374
:104510000091D7021091D8022091D9023091DA028D
:1045200060237123822393231F910F910C946622A1
:104530000F931F930091D7021091D8022091D902B6
:104540003091DA0260277127822793271F910F91FC
:104550000C9466220C9461220E94AA226093D302DA
:104560007093D4028093D5029093D6020C945F1E70
:1045700060E070E0CB010C94AC220F931F9341E0FC
:1045800050E060E070E08A019B0104C0000F111F41
:10459000221F331F8A95D2F7C901B8011F910F91CD
:1045A0000C94AC220F931F9341E050E060E070E068
:1045B00004C0440F551F661F771F8A95D2F780915C
:1045C000D3029091D402A091D502B091D6028A0173
:1045D0009B01082B192B2A2B3B2BC901B8011F91DA
:1045E0000F910C94AC220F931F9341E050E060E0D8
:1045F00070E004C0440F551F661F771F8A95D2F7DD
:1046000040955095609570958091D3029091D40219
:10461000A091D502B091D6028A019B0108231923EB
:104620002A233B23C901B8011F910F910C94AC229E
:104630000F931F9341E050E060E070E004C0440F2E
:10464000551F661F771F8A95D2F78091D3029091EC
:10465000D402A091D502B091D6028A019B0108270D
:1046600019272A273B27C901B8011F910F910C94E4
:10467000AC220F931F930091D3021091D40220918A
:10468000D5023091D602602B712B822B932B1F9178
:104690000F910C94AC220F931F930091D3021091B1
:1046A000D4022091D5023091D60260237123822357
:1046B00093231F910F910C94AC220F931F930091A1
:1046C000D3021091D4022091D5023091D6026027F6
:1046D0007127822793271F910F910C94AC22089584
:1046E00020E1929F800D1124E82FE695E695E6954E
:1046F000877051E001C0550F8A95EAF785E0E89F81
:10470000F0011124EF55FD4F20E030E070E04081D2
:10471000CB01022E02C0969587950A94E2F781702C
:10472000819584278523842781932F5F3F4F2530F0
:10473000310569F7089520E1929F800D1124682FBB
:10474000669566956695982F977085E0689FB0018D
:10475000112440E050E080E0FB01E40FF51FEF552D
:10476000FD4F208130E0092E02C0369527950A942E
:10477000E2F721703327042E01C0220F0A94EAF7D2
:10478000822B4F5F5F4F4530510531F70895BF923F
:10479000CF92DF92EF92FF920F931F93CF93DF930D
:1047A0008C01C090D302D090D402E090D502F0905A
:1047B000D6028091D7029091D802A091D902B091EF
:1047C000DA02C82AD92AEA2AFB2ACFE1D0E0D701A7
:1047D000C6010C2E04C0B695A795979587950A94A7
:1047E000D2F780FD04C0219790F7B12C07C0BC2EF2
:1047F000B8018C2F0E94F4070197A9F38B2DDF914C
:10480000CF911F910F91FF90EF90DF90CF90BF90CD
:104810000895CF93DF93EC010E94C723BE010E944D
:10482000F407DF91CF9108951F93CF93DF93EB01AE
:1048300090916802992321F0CB010E94092413C0B2
:10484000882349F0CB010E94C723182F682FCE017F
:104850000E94702304C0CB010E949B23182FBE012D
:10486000812F0E94F407DF91CF911F9108958091CD
:10487000DB0285958595859508958091DB0287708B
:1048800008959091DB02977081E009F480E008952B
:104890008091FF0208959091FF02892B8093FF027F
:1048A000089580959091FF0289238093FF020895D7
:1048B0001092FF0208959091FE02892B8093FE02D0
:1048C000089580959091FE0289238093FE020895B9
:1048D0001092FE0208959091FD02892B8093FD02B3
:1048E000089580959091FD0289238093FD0208959B
:1048F0001092FD0208958091DC02089508950C94B1
:104900007E240C947F249091DC02981721F08093F0
:10491000DC020C94812408958091DC02882329F024
:104920001092DC0280E00C9481240895E09117013C
:10493000F09118018091FF028083E0911701F091BE
:10494000180190818091FE02892B8083E0911701EC
:10495000F091180190818091FD02892B80838091D4
:10496000DC02882381F0E0911701F0911801908119
:10497000892B808380911701909118010E94D9257D
:1049800081110E948C2480911701909118010C9440
:10499000FF180C947E2498E0899F90011124262B07
:1049A0002093DB020E94D2228091DB0285958595BF
:1049B00085950C94C9241092DB0280E00C94C924E4
:1049C0002091DB02809582238093DB02982F9770E1
:1049D00079F430E0482F082E000C550B24173507CA
:1049E00039F08595859585950E94F3220C94DB24FA
:1049F00008959093DF018093DE0108958295982FAA
:104A0000937344E0949F900111248C7C8695869545
:104A1000282B822F8575880F2A7A2695822B089558
:104A2000CF93DF93D92F0E94FE24C82F8D2F0E9491
:104A3000FE242C2F30E0322F2227A901482BCA0157
:104A4000DF91CF9108956FEF7FEF80E090E00C94BD
:104A5000063480E090E00E94E23321E08C3E9E4FDD
:104A600009F020E0822F089582E090E00C94D43386
:104A700083E090E00C94D433CF9384E090E00E94E4
:104A8000D433C82F81E290E00E94D4332C2F30E041
:104A9000A901582BCA01CF910895CF93C92F682F30
:104AA00084E090E00E94E8336C2F81E290E0CF91A7
:104AB0000C94E83386E090E00C94D433682F86E0C1
:104AC00090E00C94E833AB01BC018FE090E00C94D3
:104AD000FA33AB01BC0183E190E00C94FA3360E05F
:104AE00070E0CB010C94692560E070E0CB010E947E
:104AF00063250C946F256CEE7EEF80E090E00E94C1
:104B0000063460E082E090E00E94E83360E083E0F9
:104B100090E00E94E8331092D7021092D8021092CF
:104B2000D9021092DA0260E084E090E00E94E8335B
:104B300060E081E290E00E94E83360E085E090E090
:104B40000E94E83360E086E090E00E94E8336FEF77
:104B500087E090E00E94E83340E050E0BA0188E04E
:104B600090E00E94FA3360E08DE090E00E94E8332C
:104B700040E050E0BA0188E190E00E94FA3360E042
:104B800087E190E00E94E83340E050E0BA018CE118
:104B900090E00E94FA3360E080E290E00E94E83307
:104BA0000C9474250C947B25682F8EE090E00C9477
:104BB000E833FC01329680912B01882331F08091FB
:104BC000900387FF02C09EE101C096E080E0915013
:104BD00028F021912223D9F38F5FF9CF089566231E
:104BE00051F120912B012223E9F02091900327FF1E
:104BF00019C0462F4695469546954E31E0F46770AC
:104C000021E030E002C0220F331F6A95E2F7FC0179
:104C1000E40FF11D828190E02823392381E0232BCA
:104C200069F409C0FC01329608962191621729F0B7
:104C3000E817F907D1F780E0089581E008959C0115
:104C4000FC0132969FEF80E04191461789F09F3F2B
:104C500019F4411101C0982F8F5F8630A9F79F3F4B
:104C600039F0F901E90FF11D97FDFA956283089576
:104C700008959C012A5F3F4FFC014281461301C009
:104C80001282019682179307B9F70895262F269569
:104C9000269526952E3170F4FC01E20FF11D677008
:104CA00021E030E001C0220F6A95EAF78281282BCB
:104CB000228308958091000380FF0CC01F926F93A0
:104CC0008AE899E09F938F930E94D8060F900F90E7
:104CD0000F900F900895262F2695269526952E3114
:104CE00078F4FC01E20FF11D677021E030E001C0B3
:104CF000220F6A95EAF7209582812823228308955E
:104D00008091000380FF0CC01F926F938CE699E0A6
:104D10009F938F930E94D8060F900F900F900F9043
:104D2000089520912B01222329F02091900327FD43
:104D30000C9446260C941F2620912B01222329F047
:104D40002091900327FD0C946B260C94392620911A
:104D50002B01FC013296222331F08091900387FFD2
:104D600002C08EE101C086E0DF011D928A95E9F75D
:104D7000089508950C94B9260C94B926CF930E94F7
:104D8000BC260E94900A0E94BA26C0E08C2F0E9486
:104D9000E309892B29F4CF5FC530C1F780E001C05A
:104DA00081E0CF9108950C94B9260C94D3260E94EB
:104DB000D52680919603843009F43CC010920103FB
:104DC00020E488E190E00FB6F894A8958093600005
:104DD0000FBE2093600080E00E940B1680E00E94CE
:104DE00054070E94CA118091020381110AC081E018
:104DF0008093020380914A038170809303030E9491
:104E000038130E94D52683B7817F846083BF83B720
:104E1000816083BF7894889583B78E7F83BF0FB6F8
:104E2000F894A8958091600088618093600010924A
:104E300060000FBE08950C94B9260E94791E0E944E
:104E400090140E94F3180E9454071092020380915C
:104E5000030381110E94D3120E94A8110C941B27F6
:104E60001F920F920FB60F9211248F939F93AF93BF
:104E7000BF9380910103811113C080918C039091A5
:104E80008D03A0918E03B0918F034196A11DB11D9A
:104E900080938C0390938D03A0938E03B0938F0324
:104EA000BF91AF919F918F910F900FBE0F901F9068
:104EB000189582E084BD93E095BD9AEF97BD8093ED
:104EC0006E0008952FB7F89480918C0390918D0314
:104ED000A0918E03B0918F032FBF08959C014FB70F
:104EE000F89480918C0390918D03A0918E03B091E2
:104EF0008F034FBF821B930B089578941F920F92DC
:104F00000FB60F9211248F939F93AF93BF9380910D
:104F10008C0390918D03A0918E03B0918F03019625
:104F2000A11DB11D80938C0390938D03A0938E03DC
:104F3000B0938F03BF91AF919F918F910F900FBE50
:104F40000F901F90189581E08093E00080E280939D
:104F5000D8001092C9008FE19EE40197F1F700C0DC
:104F6000000087E090EBDC0180939F039093A00307
:104F7000A093A103B093A2039CE088E10FB6F8943C
:104F8000A895809360000FBE90936000FFCF0C94B3
:104F900023250E94900A8FE39CE90197F1F700C056
:104FA00000000E94900A80E00E94E30980FF04C094
:104FB0000E94C7270C94A32708950E9429258111D8
:104FC00002C00E94D2250E943425809300030E94D3
:104FD0003C2590939103809390030E943825682F7D
:104FE00070E080E090E00E9472226091D3027091A4
:104FF000D4028091D5029091D6020C94AA2280917D
:105000000A0380FF0BC060911E0185E0689FB0011C
:10501000112475956795759567952BC081FF09C01B
:1050200060911E0185E0689FB00111247595679518
:1050300020C082FF07C060911E0185E0689FB0011B
:10504000112417C0909109039923D1F060911D019B
:10505000961788F720911E0185E0289F9001112462
:10506000929FA001939F500D112470E0CA010E94ED
:10507000FE326038710540F46115710519F406C0FF
:1050800065E070E0862F08958FE7089581E0089528
:1050900080910A0380FF08C060911A0170E0759545
:1050A00067957595679521C081FF06C060911A01CB
:1050B00070E07595679519C082FF04C060911A0170
:1050C00070E010C090910803992399F06091190144
:1050D0009617A0F780911A01899FC001112470E0F2
:1050E0000E94FE326038710540F46115710519F4B3
:1050F00006C061E070E0862F08958FE7089581E093
:105100000895803F21F40E94FF27819504C0813FCC
:1051100029F40E94FF2780930E030895823F21F413
:105120000E94FF27819504C0833F29F40E94FF2736
:1051300080930D030895893F19F40E94482805C003
:105140008A3F31F40E944828819580930F03089587
:105150008B3F21F40E944828819504C08C3F29F49C
:105160000E944828809310030895843F21F4809181
:105170000C03816017C0853F21F480910C0382608D
:1051800011C0863F21F480910C0384600BC0873FDF
:1051900021F480910C03886005C0883F31F4809130
:1051A0000C03806180930C0308958D3F21F480915E
:1051B0000A0381600BC08E3F21F480910A03826054
:1051C00005C08F3F29F480910A03846080930A030D
:1051D0000895803F39F480910E0387FF6AC01092D2
:1051E0000E0367C0813F29F480910E031816BCF3AB
:1051F00060C090910D03823F29F497FF5AC010922E
:105200000D0357C0833F19F41916CCF352C0909187
:105210000F03893F31F419160CF04BC010920F03A5
:1052200048C08A3F19F497FF44C0F8CF8B3F39F448
:105230008091100387FF3DC0109210033AC08C3F4D
:1052400029F4809110031816BCF333C0843F21F475
:1052500080910C038E7F17C0853F21F480910C0351
:105260008D7F11C0863F21F480910C038B7F0BC092
:10527000873F21F480910C03877F05C0883F31F47C
:1052800080910C038F7E80930C0313C08D3F21F41B
:1052900080910A038E7F0BC08E3F21F480910A0318
:1052A0008D7F05C08F3F29F480910A038B7F809307
:1052B0000A0380910D03811106C080910E038111B4
:1052C00002C01092090380910F03811106C08091E2
:1052D0001003811102C01092080308958091000309
:1052E00083FF7EC08FEC99E00E943F0680910C0303
:1052F0001F928F938AEC99E09F938F930E94D80618
:1053000088EC99E00E943F0680910D03282F082E1B
:10531000000C330B3F938F9385EC99E09F938F9311
:105320000E94D80683EC99E00E943F0680910E030C
:10533000282F082E000C330B3F938F9380EC99E0BD
:105340009F938F930E94D8068EEB99E00E943F06B0
:1053500080910F03282F082E000C330B3F938F935F
:105360008BEB99E09F938F930E94D80689EB99E08D
:105370000E943F0680911003282F082E000C330B4B
:105380003F938F9386EB99E09F938F930E94D8066B
:1053900083EB99E00E943F06809109031F928F934F
:1053A00080EB99E09F938F930E94D8068EEA99E054
:1053B0000E943F0680910A031F928F938BEA99E027
:1053C0009F938F930E94D80688EA99E00E943F0637
:1053D0008DB79EB74C960FB6F8949EBF0FBE8DBF8B
:1053E0000E94622720910D03211104C020910E0319
:1053F000222321F0909307038093060320910F034B
:10540000211104C020911003222321F09093050361
:10541000809304038BE093E00C945419EF92FF9275
:105420000F931F93CF93DF9300D000D000D0CDB760
:10543000DEB786E0EBE0F3E0DE01119601900D921D
:105440008A95E1F7E0900D03F0900E0300910F03B1
:105450001091100310920D0310920E0310920F037F
:1054600010921003E11003C0FF2009F45DC0809189
:105470000603909107030E946E27AC0190910903E7
:10548000992339F020911F0130E02417350758F097
:105490004BC0209120018AE0289F900111242417FD
:1054A000350718F041C09F3F19F09F5F90930903A3
:1054B000EE2061F00E94FF271E1414F09FEF01C040
:1054C00091E0989F902D112490930D03FF2061F09F
:1054D0000E94FF271F1414F09FEF01C091E0989FD6
:1054E000902D112490930E0330910D033323E1F09E
:1054F00020910E032223C1F045EB3403C001112497
:10550000992319F090930D0303C081E080930D035C
:1055100035EB2303C0011124992319F090930E0356
:1055200003C081E080930E03011103C0112309F42D
:105530005DC080910403909105030E946E27AC0129
:1055400090910803992339F020911B0130E0241732
:10555000350758F04BC020911C018AE0289F90012C
:1055600011242417350718F041C09F3F19F09F5FA1
:1055700090930803002361F00E944828101614F04D
:105580009FEF01C091E0989F902D112490930F03FD
:10559000112361F00E944828111614F09FEF01C0FA
:1055A00091E0989F902D11249093100330910F0358
:1055B0003323E1F0209110032223C1F045EB3403A3
:1055C000C0011124992319F090930F0303C081E0C7
:1055D00080930F0335EB2303C0011124992319F0A5
:1055E0009093100303C081E08093100380910D031A
:1055F00081110BC080910E03811107C080910F03B0
:10560000811103C08091100381110E946E29EB82E9
:10561000FC820D831E8386E0FE013196ABE0B3E091
:1056200001900D928A95E1F726960FB6F894DEBFA9
:105630000FBECDBFDF91CF911F910F91FF90EF90E3
:105640000895EBE0F3E086E0DF011D928A95E9F72B
:10565000109209031092080310920A030895809192
:10566000340308959FB7F894109213039FBF90914D
:105670009603943009F057C09091E9009F703091E3
:10568000EC00232F217030FD20E8922B23E02093A3
:10569000E9002091EB0020FF43C02091EE0027FF9E
:1056A0003FC020911103222321F02091E80025FF23
:1056B00037C01092110326E03091E80035FD15C087
:1056C00030919603343061F53091EB0035FD28C000
:1056D000215021F481E08093110322C0EFE9FFE023
:1056E0003197F1F700C00000E7CF8093F10080917F
:1056F000E80085FD0AC08091E80080FFFCCF809122
:10570000E8008E778093E80006C08FB7F89421E018
:10571000209313038FBF9F709093E90080E008955A
:105720009F709093E9008FEF0895CF93DF9300D09F
:105730001F92CDB7DEB790919603943019F5898307
:105740007B836A8382E08093E9008FEF9091E80089
:10575000815095FD06C095ED9A95F1F700008111F5
:10576000F5CF8091E80085FF0DC040E050E063E098
:1057700070E0CE0101960E94232E8091E8008E7782
:105780008093E8000F900F900F90DF91CF910895D4
:10579000BC0184E00C94952BBC0183E00C94952B08
:1057A00022E02093E9002FEF3091E800215035FDF1
:1057B00006C035ED3A95F1F700002111F5CF2091A3
:1057C000E80025FF0BC040E050E066E070E00E947A
:1057D000232E8091E8008E778093E8000895CF9380
:1057E000DF9320912B01222339F02091900327FF92
:1057F00003C060E222E002C068E021E02093E900FB
:105800002FEF3091E800215035FD06C035ED3A9577
:10581000F1F700002111F5CF2091E80025FF1DC010
:10582000EC0180912B01811105C040E050E068E05F
:1058300070E003C070E040E050E0CE010E94232EF3
:105840008091E8008E778093E80080E2FE01A4E179
:10585000B3E001900D928A95E1F7DF91CF91089521
:1058600087E19AE00E943F0680919503811109C06B
:105870000E94B42F0E9411308091E20084608093D6
:10588000E200089583E19AE00E943F06109295039A
:1058900008958FE09AE00C943F068BE09AE00C9418
:1058A0003F0687E09AE00E943F060C941D27209156
:1058B00012032F5F822F62E30E94D032992319F0E6
:1058C00020931203089510921203809113038823EA
:1058D00071F180919603843041F58091E9008F70D9
:1058E0002091EC00922F917020FD90E8892B93E09D
:1058F0009093E9009091EB0090FF14C09091EE001E
:1059000097FF10C09091E80095FF03C01092F1003E
:10591000F9CF9091E80090FF05C09091E8009E7744
:105920009093E8008F708093E9001092130308951C
:1059300042E061EC81E00E942D2F42E261EC82E0C6
:105940000E942D2F42E261EC83E00C942D2F809178
:105950009803833009F460C030F4813071F08230F4
:1059600009F499C008958A3009F485C08B3009F490
:105970006BC0893009F0A7C020C080919703813A9D
:1059800009F0A1C08091E800877F8093E8008091B2
:105990009B0390919C03892B21F460E284E193E0C6
:1059A00003C060E080E090E070E00E946E2E809185
:1059B000E8008B778093E800089580919703813207
:1059C00009F081C080919B0390919C03029708F09D
:1059D0007AC08091E800877F8093E8008091E8009A
:1059E00082FD05C0809196038111F8CF6CC0209193
:1059F000F3008091F20090E0922B029729F48091BD
:105A0000F1008B7F813021F48091F1008093340389
:105A10008091E8008B7753C080919703813A09F019
:105A200052C080919B0390919C03892B09F04BC03D
:105A30008091E800877F8093E8008091E80080FFF4
:105A4000FCCF80912B0136C0809197038132D9F52C
:105A500080919B0390919C03892BA9F58091E8008C
:105A6000877F8093E8000E94622F80919903809342
:105A70002B010C94791E80919703813221F580913E
:105A8000E800877F8093E8000E94622F80919A034C
:105A900080933503089580919703813AA1F4809112
:105AA000E800877F8093E8008091E80080FFFCCFCA
:105AB000809135038093F1008091E8008E77809388
:105AC000E8000C94622F089584B7877F84BF0FB6D7
:105AD000F894A8958091600088618093600010928E
